:020000040800F2
:10000000D005002001550008D9520008DB52000835
:10001000DD520008DF520008E15200080000000035
:10002000000000000000000000000000074B000876
:10003000E352000800000000C14A00088B4000089D
:1000400025550008295500082D5500083155000890
:1000500035550008395500083D5500084155000840
:1000600045550008495500084D55000851550008F0
:100070005555000859550008E5520008EB52000894
:100080005D5500086155000865550008F1520008EB
:10009000F3520008695500086D55000871550008B5
:1000A00075550008FB520008795500087D55000879
:1000B000015300088155000885550008895500083E
:1000C0008D55000891550008955500089955000870
:1000D0009D5500083D530008A1550008A55500088E
:1000E000A9550008AD550008B15500087CB5DFF8EA
:1000F0005849E07A08B9607BE072E07A217B884257
:1001000000F09E802073A07BE17BDFF84069401CFB
:10011000C0B2814238BF0020A073002504E0401E19
:1001200026F8030C6D1C1836607A854280F28880B0
:1001300036F8030C0028F2D184B0A6F10D01684610
:10014000182200F0BBFC0FBC00F032FD012816F8AD
:10015000010C3FD10328E5D8DFE800F0030C131AA7
:10016000E0E7012006F8010C002030707070B070DC
:10017000207CD5E7022006F8010C01203070607C5D
:10018000CEE7032006F8010C01207070A07CC7E7C1
:10019000042006F8010C0120B0703078002801BF5F
:1001A000707800280420F070307868B1707808B951
:1001B0000420F070307838B170780028B2D0052073
:1001C000F07030780028ADD170780028AAD00420D3
:1001D000F070A7E7012804D0A4D303280FD007D3D9
:1001E000A0E7022006F8010C00203070607C97E741
:1001F000032006F8010C00207070A07C90E704201A
:1002000006F8010C0020B0703078002801BF70782B
:1002100000280220F07030780028D5D0707808B916
:100220000220F07030780028CED0707800283FF49B
:1002300079AF0320F070307800287FF473AFC3E704
:1002400073BDDFF80C1800EB400201EBC200012186
:10025000017400210173418141738173C17370473F
:100260002DE9F041DFF8E05780460C4600262F4686
:1002700005E0D7E9000100F094FC761C0837287AE5
:10028000864213DA38788045F7D1012C04D0F4D3B4
:10029000032CEED005D3F0E7D7E9000100F077FC9E
:1002A000EBE7D7E9000100F06FFCE6E7BDE8F0817D
:1002B000F8B505460026DFF89C770C4605E097E880
:1002C000070000F0A9FC761C0C37DFF87C07807A69
:1002D000864213DA38788542F5D1012C04D0F2D366
:1002E000032CECD005D3EEE797E8070000F08DFC77
:1002F000E9E797E8070000F081FCE4E7F1BDF8B515
:10030000DFF85447DFF8541794F82030012060706C
:10031000022020710320E07100200A788BB125466D
:10032000461C2E706F7894F818C0674503D10122DF
:10033000AA70324601E00226AE70401CED1C9842C5
:10034000EEDB0A7000F070FC0020E07700F054FD56
:10035000DFF80C0700F03EFE00224FF48041DFF88A
:10036000040701F0B4F80020207701206077A0771F
:10037000F1BD10B500F0D4FCDFF8DC46DFF8E8167C
:10038000E07F0978084218BF00F0FCFAA07F02283D
:1003900042D10121A177002004F10C010A78012A41
:1003A0001CBF11F8012B032A2BD10221A177607603
:1003B000DFF8B81601EB0011DFF8B4060A78027016
:1003C0004A7842708A788270CA78C2700A7902715B
:1003D0004A7942718A798271CA79C2710A7A027243
:1003E0004A7A42728A7A8272CA7AC2720A7B02732B
:1003F0004A7B42738A7B8273C97BC17300F018F910
:100400000AE00A78401C012A1CBF11F8012B032ABC
:10041000CBD0401C0A28C1D3207F98B1208D88B949
:100420002077214600E0401C94F82020904209DA11
:1004300011F8032BE37E9A42F5D100EB400000193E
:1004400003218170012001F082F8BDE8104000F026
:1004500028BDF8B5DFF82046DFF820060F2204F1AA
:10046000140101F0E4F8002872D1DFF81456DFF827
:10047000E8652870002706F10C0010F8011B61B92F
:10048000DFF8E805102204F1140100EB071000F07A
:1004900005FBB9190120087357E010F8011B7F1CF8
:1004A0000029EDD07F1C0A2FE7D3002706F10C00AE
:1004B00010F8011B02291BD1DFF8B005102204F14E
:1004C000140100EB071000F0E9FA092F07D2B81960
:1004D000407B022808D1B9190020487304E0307B22
:1004E000022804BF00203073B919012008732CE0E2
:1004F00010F8011B7F1C0229DED07F1C0A2FD7D3E6
:10050000002706F10C0010F8011B01290CD1DFF8BF
:100510005C05102204F1140100EB071000F0BEFA94
:10052000B919032008730FE010F8011B7F1C012983
:10053000EDD07F1C0A2FE6D304F114009CC8DFF82D
:100540002C1503209CC13073012028700220B07745
:10055000F1BD70B50129024602D0022929D070BD33
:10056000DFF8F454DFF80C65697FDFF8F804DFF892
:100570000845022908D101224FF4804100F0A7FF6D
:100580000A2000F0E4FF3DE0297E21706270012125
:10059000A170E170012200216160A160E16002218F
:1005A00069774FF4804100F092FF0A2000F0CFFFFE
:1005B00028E0DFF8A454DFF8C044287EDFF8B464F4
:1005C000207062700120A07001220320E070DFF82B
:1005D0007804017A2171417A61714FF48041807A07
:1005E000A071207CE071607C2072002060726081CC
:1005F000E06002206877DFF86C0400F068FF0A20F2
:1006000000F0A5FF96F8210001280AD10F2221460B
:10061000DFF8680400F0D0FF022086F821000320F4
:100620006877012000F093FF0020207570BD000066
:10063000F0B5DFF8241483B0CA7F002A00F0AB8045
:1006400000228A760023DFF83C2402F1100414F81B
:10065000015BC5B9DFF8304404EB031405460426FA
:1006600015F8017B04F8017B761E15F8017B04F870
:10067000017B15F8017B04F8017B15F8017B04F878
:10068000017BEDD135E014F8015B5B1C002DE1D05E
:100690005B1C0A2BDBD3002302F1100414F8015B6E
:1006A000022D2BD1DFF8E04304EB031405460426AA
:1006B00015F8017B04F8017B761E15F8017B04F820
:1006C000017B15F8017B04F8017B15F8017B04F828
:1006D000017BEDD1092B07D29C18647C022C08D138
:1006E0009D1800246C7404E0147C022C04BF0024C8
:1006F00014749A18012414748C764CE014F8015B7D
:100700005B1C022DCED05B1C0A2BC7D3002302F149
:10071000100414F8015B012D1BD1DFF86C4304EBCE
:1007200003140546042615F8017B04F8017B761EA8
:1007300015F8017B04F8017B15F8017B04F8017BB7
:1007400015F8017B04F8017BEDD19A180324147489
:100750001FE014F8015B5B1C012DDED05B1C0A2B33
:10076000D7D300230446DFF8205314F8016B5E55FD
:100770005B1C14F8016B5E555B1C14F8016B5E5535
:100780005B1C14F8016B5E555B1C102BEDDB032327
:10079000137401228A7602224B7E5B180C461A7370
:1007A000002391F8202000E05B1C93420DDA14F83E
:1007B000036B0778BE42F7D103EB43035B189C78C9
:1007C000022C12BF032C01249C7044780D7E837888
:1007D000AC4226D19B1E032B3DD8DFE803F0023943
:1007E000161CC178007803B0BDE8F040B1E6817A0C
:1007F0000291417A0191017A0091C379827941791C
:10080000007900F0FEF803B0F0BD0179C07803B0C4
:10081000BDE8F04024E50179C07803B0BDE8F040C0
:1008200046E5012B03D0032B12D003B0F0BDC078F6
:10083000012810D17AB108460378CC7EA34202D1B8
:1008400000230B850B77C01C521EF5D103B0F0BD01
:10085000C1780229CBD003B0F0BD10B4864C207013
:10086000022A019820716170A270E3700298607191
:100870000398A0710498E071059820720698607240
:100880000798A0720898E072099820730A9860731C
:100890000B98A0730C98E0736F4802D10122027785
:1008A000C1760221417710BC704738B56A4CE07FB1
:1008B00000284BD0608C002848D1A08C714D6084FA
:1008C00005F1100100200A78012A1CBF11F8012B44
:1008D000032A30D103212970287711226A4901EBBC
:1008E0000010017869704178A9708178E970C17849
:1008F0002971017969714179A9718179E971C179A8
:100900002972017A6972417AA972817AE972C17A8F
:100910002973017B6973417BA9732946807BE87346
:100920005A4801F04AF918B9297F49190220087478
:10093000A08C60840AE00A78401C012A1CBF11F8D0
:10094000012B032AC6D0401C0A28BCD3607F401E5E
:10095000012813D9801E02BF464890F821000128C3
:100960000FD100224FF480413E4800F0B0FD01203D
:100970006077207F28B1E08C208531BDBDE8314013
:1009800067E531BD4248017801B9704700B58DB0C7
:10099000C17BC37882780B91817B0A91417B09915D
:1009A000017B0891C17A0791817A0691417A05917C
:1009B000017A0491C1790391817902914179019180
:1009C0000179009141782448007EFFF746FF2649CF
:1009D000002008700DB000BD00F0B6B9032802D0A9
:1009E000042807D07047184800EBC102D2E9000183
:1009F00000F0CAB8144800EBC102D2E9000100F0CF
:100A0000C6B870B5234D28716971AA711C46224E73
:100A10000122291D304601F09BF908B101F0A4FC28
:100A2000049868702C7001220598A87029460698D1
:100A3000E870304601F0E5F900281CBFBDE87040C1
:100A400001F092BC70BD000048000020B5250020D8
:100A5000A8250020082600201C000020A827002030
:100A6000D02400200010014064270020B422002080
:100A700088270020AC2600205C0000209024002065
:100A8000CE0100203027002054230020901E00209B
:100A900068270020A02700205027002062B38B0782
:100AA00008D0521E11F8013B00F8013B00F02480F1
:100AB0008B07F6D1830740F0208000BF103A07D3A0
:100AC00030B4B1E83810103AA0E83810F9D230BC90
:100AD000530724BFB1E80810A0E8081044BF51F83C
:100AE000043B40F8043BD20724BF31F8022B20F826
:100AF000022B44BF0B7803707047083A07D3B1E864
:100B00000810083A40F8043B40F804CBF7D25307EA
:100B1000E4E7F0B4016844688368091801EB540203
:100B2000E40748BF4B440C3091422BD011F8014BE5
:100B300014F0030504BF11F8015BED1C26090F2E0C
:100B400007D111F8016B0F3603E011F8017B03F8B0
:100B5000017B6D1EF9D1002EE6D0A40811F8015BCF
:100B600004F00304032C08BF11F8014B05EB042427
:100B70001C1BB51CD8D014F8016B03F8016B6D1E5B
:100B8000F9D1D1E7F0BC704781B0012201E081B01A
:100B9000002203B481B0BDF80610029804B000F042
:100BA00096BC81B003B481B0BDF80610029838E05D
:100BB0000FB4F8B5BDF81A600F4F0D463146284600
:100BC00000F07EFC0224012818BF022078703878DB
:100BD00000F0BDFC3146284600F072FC012818BF29
:100BE0000220B8707878012802BFB8780128012463
:100BF0002046F2BC5DF814FBC801002081B007B4A8
:100C0000BDF8021001980122C8E781B007B4BDF811
:100C1000021001980022C1E781B007B4BDF80210AC
:100C2000019804B000F057BC10B5664A664C546099
:100C3000012010704FF480705080D2E90001FFF75E
:100C4000A6FF624801210170032280214180042314
:100C5000022101720176446040214183C461022176
:100C600080F8201000F130010A7020224A804C6088
:100C700002220A72CC6104220A7610224A830221DF
:100C8000012280F85010012051490A7202220A7391
:100C9000CA81087001220A75022003220A76488060
:100CA0004FF400424A830C614A4A4B48CA6148608B
:100CB000012281F8202001F1240213704FF4806397
:100CC0005380546001231372146105231373D4619C
:100CD0004FF40063D3810123137506231376012398
:100CE000538301F8443F07220A718C604FF400726D
:100CF000CA800B7308220A744C6104224A820B7664
:100D0000802236490B704A804860402234494A802C
:100D100002220A720B70202248604A81C86010BD0E
:100D200018E000002948007C801E03280BD8DFE86B
:100D300000F0020207072B48417809B901214170F0
:100D40000020FFF77EBA704780B5FFF7CFF9BDE806
:100D50000140E7E710B5244C6078A178814230D09B
:100D600068BB20786070E08840B1401EE08080B2AF
:100D700020B9144AD2E90001FFF709FF208940B1E8
:100D8000401E208180B220B92071184807C8FFF7A3
:100D90003CFFA08940B1401EA08180B220B9E07024
:100DA000134807C8FFF731FF208A40B1401E208258
:100DB00080B220B960710F4807C8FFF726FF60783E
:100DC000A07010BD48000020000C0140A8250020A4
:100DD000082600200010014000080140982700204C
:100DE00078270020E8110020B40100202C260020E4
:100DF0003826002044260020594801210170032292
:100E0000002141704160018103230A21C16000F18A
:100E10005C010A7000220A7501228A620A220261BC
:100E200004224A7000224A75CA62012242610022ED
:100E30008A708A750A6300F1D40102220A700022C6
:100E40004A704A600A810522CA6000F598721370E0
:100E500000231375936205230B6104235370002351
:100E60005375D36205234B6103239370002393755D
:100E7000136305238B610423D3700023D37553635D
:100E80000523CB610323137100231376936305239A
:100E90000B620421517100215176D163032101704D
:100EA00070472DE9F0412F4C6078002856D12C4E28
:100EB000002506F108070DE007F8070C787808EB25
:100EC0008000C06847F8040C00207870002038705B
:100ED0006D1CD437207885423EDA17F8070C0028BD
:100EE000F6D0387818B102281DD005D3F0E757F8AE
:100EF000040CD8B90120EAE7D42000FB0568787813
:100F0000404490F870107878404490F85C00FFF707
:100F100065FD02203870787808EB8000D0F88400F6
:100F200047F8040CD4E757F8040C08B1401EF7E763
:100F30007878401C7870D42101FB0568C0B2404429
:100F400090F85C000028B7D0787808EB8000D0F8E3
:100F5000840047F8040CB9E7A0786070BDE8F08120
:100F6000E8110020CB01002038B5050001D1012097
:100F700032BD05F13C04607818B92070284601F0B4
:100F800053FA02206070281D2968DFF8B0200B6832
:100F9000914218BFB1F1804F07D0DFF8A450A942A9
:100FA0001CBFDFF8A050A9420BD1456823F07003A5
:100FB0002B4391421EBFB1F1804FDFF88450A9420C
:100FC00003D0DFF88050A94203D1C56823F44073F1
:100FD0002B4305E00068C16841F00101C16027E0D2
:100FE000456923F080032B430B6091428368CB62F9
:100FF00003688B6203D10069DFF84C201060012088
:1010000048616070002032BD0068012202FA01F1DF
:10101000026A8A430262026A11430162DFF81C100D
:10102000884205D1DFF824100A6842F400420A60C1
:10103000016841F00101016000207047002C01406F
:101040000004004000080040302C0140442C0140C6
:1010500010B5044620680169890716D5C16889075B
:1010600013D56FF00201016101212177806910F031
:10107000030F204602D000F058F904E000F054F9C4
:10108000204600F053F900202077206801694907C5
:1010900016D5C168490713D56FF00401016102211B
:1010A0002177806910F4407F204602D000F03DF99E
:1010B00004E000F039F9204600F038F900202077EC
:1010C00020680169090716D5C168090713D56FF0B3
:1010D0000801016104212177C06910F0030F204647
:1010E00002D000F022F904E000F01EF9204600F0E2
:1010F0001DF90020207720680169C90616D5C1684E
:10110000C90613D56FF01001016108212177C0696C
:1011100010F4407F204602D000F007F904E000F010
:1011200003F9204600F002F90020207720680169C9
:10113000C90708D5C168C90705D56FF0010101616C
:10114000204601F0F5F820680169090608D5C16854
:10115000090605D56FF080010161204601F025FAEE
:1011600020680169490608D5C168490605D56FF0B0
:1011700040010161204600F0DAF820680169890623
:101180000AD5C168890607D56FF0200101612046A4
:10119000BDE8104001F008BA10BD70B400F13C0287
:1011A0001378012B08BF022000F0BC8001231370CC
:1011B00002235370DFF8785103689C682C409C60D0
:1011C0000B68002B00F08E80102B00F09280202BFB
:1011D00000F09680302B00F09A80402B68D0502B86
:1011E00031D0602B49D0702B0BD0B3F5805F03D08A
:1011F000B3F5005F16D091E000688168C908C900A6
:101200008BE0CB684C6805688968AE6826F47F4639
:101210003143214341EA0321A9600068816841F01C
:1012200077017AE0CB684C6805688968AE6826F477
:101230007F463143214341EA0321A9600068816868
:1012400041F4804169E0CB684C68016818318D68D1
:101250008E68760876008E600E6826F0F00646EA04
:1012600003130B6025F00A0323438B600068816839
:1012700021F0700141F057014FE0CB684C680168E4
:1012800018318D6825F010058D600D688E6825F485
:10129000704545EA03330B6026F0A00343EA0413CC
:1012A0008B600068816821F0700141F0670134E0D3
:1012B000CB684C68016818318D688E6876087600B6
:1012C0008E600E6826F0F00646EA03130B6025F0E8
:1012D0000A0323438B600068816821F0700141F0AC
:1012E00047011AE00068816821F0700141F00701B0
:1012F00013E00068816821F0700141F017010CE0F3
:101300000068816821F0700141F0270105E0006864
:10131000816821F0700141F0370181600120507037
:101320000020107070BC704770477047704770475E
:101330008800FFFF2DE9F84F002400226FF01F0303
:10134000DFF89C81DFF89C91DFF89CA14FF00F0B38
:10135000012505FA02F70D6807EA050EBE4540F0C3
:10136000A8804D684DB3012D1AD0022D1DD0032D3C
:101370002ED0112D16D0122D1BD05C4EB5421CBFA5
:101380005B4EB54219D05B4EB5421CBF5A4EB542BA
:1013900013D05A4EB5421CBF594EB5420DD018E07D
:1013A000CC6816E0CD682C1D13E0CD6805F108046B
:1013B0000FE0CD6805F10C040BE08C680CB9042437
:1013C00007E0012C19BF082447610824076100E0E9
:1013D0000024BEF1FF0F99BF8446950000F1040C74
:1013E0001D460BFA05F7DCF80060BE4304FA05F56C
:1013F0003543CCF800504D68ED005AD5DAF800506E
:1014000045F00105CAF800504FEA920CDAF8006086
:1014100006F001050095009D59F82C6002F00305C7
:10142000AD000BFA05F7BE43364FB84208BF0027A0
:101430000ED0354FB84208BF012709D0334FB8420C
:1014400008BF022704D0324FB8420CBF032704273D
:1014500007FA05F5354349F82C504D68ED03D8F8E7
:1014600000504CBF4EEA050525EA0E05C8F80050AD
:101470004D68AD03D8F804504CBF4EEA050525EA87
:101480000E05C8F804504D68ED02D8F808504CBF5E
:101490004EEA050525EA0E05C8F808504D68AD026C
:1014A000D8F80C504CBF4EEA050525EA0E05C8F8E1
:1014B0000C50521C1B1D102AFFF44AAFBDE8F18FDF
:1014C00080680840401E8041C043C00F704702B989
:1014D000090401617047C2685140C1607047000053
:1014E00000040140080001401810024000001110E3
:1014F0000000121000002110000022100000311026
:101500000000321000080140000C014000100140B2
:101510000014014080B501F065F9002002BD00B55E
:1015200083B0B0F908200023842A18BFD31C00938D
:1015300002AA01920B4601680269406892B201F06A
:1015400035F8012814BF0020029803B000BD80B513
:1015500000B9012001F005F9002002BD38B50500F1
:1015600001D1012032BD05F13804607818B920702E
:10157000284600F073FF242060702868C16821F4B9
:101580000051C160284600F013FA2868016921F46F
:10159000904101612868416921F02A01FFE741611A
:1015A0002868C16841F40051C160002060602020BB
:1015B0006070A070002032BD38B5044604F13805D3
:1015C0006878202831D1002918BF002A01D10120D4
:1015D00032BD2878012828D0012028702162A284F9
:1015E000E2840020686021206870236B0FF24120A4
:1015F0009862236B0FF26920D862236B0FF2B5203B
:1016000018630020236B586313462068021D206B6B
:1016100001F0D0FA21686FF04000086000202870C7
:101620002068416941F0800149E0022032BD38B5AF
:10163000044604F13805A87820283ED1002918BFB7
:10164000002A01D1012032BD2878012835D001209F
:101650002870A162A285002068602220A870636BB8
:101660000FF209209862636B0FF23D20D862636B22
:101670000FF2412018630020636B58631346206803
:101680000A46011D606B01F095FA00200090206869
:101690000168009141680091009900212970C1689A
:1016A00041F48071C1602068416941F001014161EC
:1016B0002068416941F0400101E0022032BD4161F2
:1016C000002032BD38B5044623681868D9685A69C5
:1016D00010F00F0F07D1820669D58A0667D520461C
:1016E000BDE832401CE1D50702D411F4907F5ED0F2
:1016F000C30705D5CB0503D5E36B43F00103E363D3
:10170000430705D5D30703D5E36B43F00203E36337
:10171000830705D5D30703D5E36B43F00403E363E5
:10172000030705D5D20703D5E26B42F00802E26356
:10173000E26B002A76D0800604D5880644BF204696
:1017400000F0EEF820684169E26B120701D4490607
:1017500027D5C16821F49071C160206841694908AA
:1017600049004161202004F1390148702068416935
:10177000490612D5416921F040014161606B60B1B9
:101780000FF28D114163606B01F05DFA002849D0C2
:10179000606B416BBDE834400847204600F047F8D5
:1017A00031BD204600F043F80020E06331BD020661
:1017B0002AD50A0628D594F83900212832D1A06804
:1017C000B0F5805F206A0BD10088C005C00D58605D
:1017D00020690028206A0CBF801C401C206203E0A6
:1017E000411C216200785860E08C401EE08480B289
:1017F000C0B92068C16821F08001C1602068C1685B
:1018000041F04001C16031BD40060BD5480609D505
:10181000D86820F04000D860202084F839002046A5
:1018200000F001F831BD704770477047704770474E
:1018300080B5416A0068006880060CD40020C88426
:101840000868426922F0800242610868C16841F07C
:101850004001C16001BD0846FFF7E5FF01BD000082
:1018600080B5406AFFF7E0FF01BD000080B501468A
:10187000486A09680968890613D40021C18501688E
:10188000CA6822F48072CA6001684A69520852002C
:101890004A6101684A6922F040024A61202180F8C9
:1018A0003A10FFF7C2FF01BD80B5406AFFF7BEFFE7
:1018B00001BD000010B5406A0268536900F13901AA
:1018C0000C78212C09D11B0607D50023C384D368CB
:1018D00023F0C003D36020220A70026853694C7859
:1018E000222C0ED15B060CD50023C385D36823F4CC
:1018F0009073D360026853695B085B0053612022D8
:101900004A70C16B41F01001C163FFF790FF10BD39
:1019100080B5406A0021C185C184FFF788FF01BD01
:1019200080B590F83A10222940D18168B1F5805FE6
:1019300011D10269816A002A0268526805D1D20574
:10194000D20D0A80816A891C03E0D2B20A80816AC2
:10195000491C81620FE001690029816A04D14A1C97
:1019600082620268526805E04A1C8262026852681C
:1019700002F07F020A70C18D491EC18589B299B9F2
:101980000168CA6822F02002CA600168CA6822F4AD
:101990008072CA6001684A69520852004A61202177
:1019A00080F83A10FFF741FF002002BD022002BD7F
:1019B0002DE9F0470446642520680169E26821F4B6
:1019C0004051114301611926C168314A1140A26892
:1019D00011432269114362691143C1604169A269DF
:1019E00021F44071114341612A4988420ED101F02E
:1019F0007BFC074601F078FC804601F075FC8146CF
:101A000001F072FC824601F06FFC0DE001F064FC15
:101A1000074601F061FC804601F05EFC814601F062
:101A20005BFC824601F058FC06FB08F36168890004
:101A3000B3FBF1F306FB07F206FB09F7B7FBF1F77F
:101A4000B7FBF5F705FB17331B013233B2FBF1F29D
:101A5000B3FBF5F3B2FBF5F203F0F00303EB021274
:101A6000704306FB0AF3B0FBF1F0B3FBF1F3B0FBFC
:101A7000F5F005FB103000013230B0FBF5F02168C5
:101A800000F00F0080188860BDE8F08700000000BB
:101A9000F3E9FFFF0038014070B50446022303223A
:101AA000812101F001FD022303220121204601F0E2
:101AB000FBFC242001F06AFD0025060004F50670F9
:101AC000066008BF01250AD086F8205040684068AB
:101AD0008047102332460121204601F049FD284667
:101AE00070BD10B50446812101F0EFFC01212046B4
:101AF00001F0EBFC04F50674206838B1606880687A
:101B00008047206801F043FD00202060002010BDC8
:101B100070B500F506750B4600221E782968002472
:101B200016F0600625D0202E45D15A78022A11D011
:101B3000032A08D0092A10D00A2A07D00B2A13D169
:101B40009878086137E00122103132E05888000AA5
:101B5000486130E0012214312BE00122CA61DA88A9
:101B6000D2B201F027FD26E0194601F02FFF022036
:101B700070BD5E78062E06D00A2E18D00B2E04BF3C
:101B80009878886117E05988090A222906D1DA88ED
:101B9000552AA8BF542269680C6806E0212904D19F
:101BA000DA88294C0A2AA8BF0922214601E001222D
:101BB000183101F0EEFC002070BD10B500F5FE7389
:101BC000DC691B78032B04BF94F82030002B07D16D
:101BD000012384F8203013460A46812101F0BAFC23
:101BE000002010BD2921018018487047D0F8180244
:101BF000002180F820100020704738B5044604F515
:101C000006721568526869782878D2689047102360
:101C10002A460121204601F0ABFC002032BD10B560
:101C200000F506721468E069012806D152686178EF
:101C30002078D26890470020E061002010BD0A2182
:101C400001800348704700004C0100202001002063
:101C500058010020022211B1C0F81C1200221046C7
:101C60007047000070B504001CD0607C18B9207467
:101C7000204600F0C3FB0220607440F2E935206882
:101C8000416821F00801416001F0E4FE0646206849
:101C90004068000708D401F0DDFE801BA842F6D39F
:101CA00004206074012070BD01F0D4FE0646206857
:101CB0004168890605D401F0CDFE801BA842F6D309
:101CC000EEE7416841F01001416020684168C908B1
:101CD000C9004160DFF8FC01A16819B141684908F9
:101CE000490041600168A26821F4607111430160FC
:101CF000606810F1010F05D1012001F025FF0028D7
:101D0000CED0401E21688A681209120142EA1042B0
:101D10008A6080B22168CA68120C40EA0240C8603A
:101D20002068416821F01001416001F093FE0646F1
:101D300020684068800605D401F08CFE801BA84214
:101D4000F6D3ADE70020E07301206073A073C5E017
:101D500070B5040018BF002950D0207C012801D1A3
:101D6000022070BD01202074022060748B784D78B1
:101D70000E784FF4616132B9C5EB0510800001FBAC
:101D800006001D181DE0300900EB800206F00F0070
:101D900000EB4202280900EB800605F00F0000EB83
:101DA0004600C0B2C0EB0015D2B2A80001FB020190
:101DB000180900EB800203F00F0000EB4200C0B2F4
:101DC00045182946204600F09DF898B920684168DA
:101DD00021F005014160204600F0C2F810F1010F2A
:101DE0000ED0A8420CD2DFF8F0100918204600F0FF
:101DF000BFF828B10420607400202074012070BD59
:101E000063E070B504000D4618BF002D5BD0207C48
:101E1000012801D1022070BD0120207402206074CD
:101E2000E97822B9E17368786073A87818E0080946
:101E300000EB800201F00F0000EB4200E0736978D4
:101E4000080900EB800201F00F0000EB4200607314
:101E5000A978080900EB800201F00F0000EB4200B6
:101E6000A073A27B617BE07B00F0B2F82073287046
:101E7000204600F036F805464FF46160B5FBF0F0FF
:101E8000192822D31821DFF85060B0FBF1F006FBCF
:101E900010552946204600F035F880B92068016ABF
:101EA000406A89B280B240EA014010F1010F0CD0C3
:101EB000A8420AD23118204600F05AF828B104206E
:101EC000607400202074012070BD01206074002027
:101ED000207470BD2C6C00408051010060740020A3
:101EE00070BD00688169C269836989B29BB29942F9
:101EF00004D0C06980B240EA0340704792B242EA1F
:101F0000014070472DE9F04104460F4601F0A2FD63
:101F10000025064640F2E93820684168890605D464
:101F200001F098FD801B4045F6D317E0416841F071
:101F300010014160390C8161B9B2C161416821F081
:101F40001001416001F086FD074620684068800668
:101F500005D401F07FFDC01B4045F6D3012534E0D8
:101F60000068016A406A89B280B240EA0140704765
:101F70002DE9F04104460F4601F06CFD00250646B0
:101F800040F2E93820684168890605D401F062FD15
:101F9000801B4045F6D317E0416841F010014160D5
:101FA000390C0162B9B24162416821F0100141600F
:101FB00001F050FD074620684068800605D401F016
:101FC00049FDC01B4045F6D301252846BDE8F081F8
:101FD00017234B434FF0090CB3FBFCF300F5FA60F9
:101FE000D218821803290DD2401E02EB9001642200
:101FF000091DB0FBF2F2891A4FF4C872B0FBF2F07F
:1020000040180CE002EB90016422091DB0FBF2F2D3
:10201000891A4FF4C872B0FBF2F04018801E0721F5
:10202000B0FBF1F1C1EBC101401AC0B27047000032
:10203000F0B597B001F0F8FC00F0A9F800F0E2F874
:10204000BF48C04D016841F00101016000220068F5
:1020500000F001000090052100980E2001F0F7FD2E
:102060000E2001F01DFE002205210F2001F0EFFDE2
:102070000F2001F015FE04A80021002200230024F7
:102080001EC0B14C0FF2EC20D0E900234FF080408D
:1020900020644BF67F306064CDE902230920E064C0
:1020A000A1642165A16504F14000FEF75DFF4FF4D6
:1020B0008050049004A904F14000FFF76EF800205E
:1020C0000290039002A904F1400000F047FA9F48F3
:1020D00020604FF4E13060600020A060E06020618B
:1020E0000C2060610020A061E0612046FFF736FA15
:1020F0000FF27820006800900FF2742000680190C1
:10210000934828604FF0FF3068604FF48070A860FB
:102110002846FFF7A7FD0020ADF800008DF802006B
:10212000012269462846FFF713FE01208DF80400BE
:102130008DF805008DF80600012200208DF80700BB
:1021400001A92846FFF75DFE0FF23021ECC912A865
:102150000021ECC012A8FFF7E2F90FF23421C4F815
:1021600080000DA8ECC9ECC000210DA8FFF7D7F93D
:102170000FF2302144F8840F08A8ECC9ECC000210C
:1021800008A8FFF7CCF96060FFF7C4F9FEE710B5C7
:1021900094B009A8282101F097FD04A8002100228D
:1021A00000230EC006C0684600241EC00920099006
:1021B0000B914FF480300A90012111900D910F91F5
:1021C0004FF4801002211290109109A800F038FEFF
:1021D0000F20049006940220059008944FF480602C
:1021E0000790012104A800F0A4FF112000904FF4F3
:1021F000007001904FF480000390684601F032FCBB
:1022000014B010BDF0B585B001A800210022002354
:1022100000241EC04F48504F0168504C504E41F0B2
:102220001001016040F60775016801F0100100918E
:102230000099016841F020010160016801F020016E
:1022400000910099016841F004010160016801F00A
:10225000040100910099016841F0080101604FF408
:102260006041006800F00800009000983846FFF7D1
:102270002EF9002202212046FFF729F900222946E3
:102280003046FFF724F94FF46040019001A9012086
:10229000029000200390022004903846FFF74AF88D
:1022A0000220019001A90120029000200390022049
:1022B00004902046FFF73EF8E020019001A900209D
:1022C000029003902046FFF735F801200290019517
:1022D0000020039001A9022004903046FFF72AF85D
:1022E000F020019001A90020029003903046FFF7F2
:1022F00021F805B0F0BD80B501F0EAFCFEF7D5FA93
:102300000120FFF724F9F9E780B5FEF765FB01200E
:10231000FFF71DF9F9E710B5FDF7F1FF094C20466D
:10232000FFF7A0FCFEF725F80120FFF710F9F6E70C
:1023300000680C49884208BF01F086BB7047000066
:102340001410024050270020902400200038014043
:102350000028004018100240001001400008014011
:10236000000C0140002C01407047000000000000FC
:10237000000000000000000000000000A054000861
:10238000F7220008000000000000000080000000AC
:10239000A854000809230008000000000000000005
:1023A00080000000B454000817230008000000005B
:1023B000000000008000000080B55E48016841F028
:1023C000010101600022016801F001010091009902
:1023D000416841F0805141600F21406800F0805019
:1023E000009000986FF0010001F031FC5248016844
:1023F00021F0E06141F00071016001BD00684F49CA
:10240000884200D0704780B501F08CFC4C480168D0
:1024100041F00061016000684A4900F000600090EE
:1024200000980120086001BD80B50068B0F1804FC0
:1024300013D14348016841F00101016000220068A6
:1024400000F001000090052100981C2001F0FFFB26
:10245000BDE802401C2001F023BC01BD70B586B070
:10246000044601A800210022002300252EC0206878
:10247000354988425CD12F48344D0168344E41F4CF
:1024800080410160016801F4804100910099016878
:1024900041F00401016001A9006800F0040000900F
:1024A00000984FF4007001900220029003200490E5
:1024B0002846FEF73FFF4FF48060019001A90020FD
:1024C000029003902846FEF735FF224D05F11400D7
:1024D000306000207060B0608020F06000203061CB
:1024E0007061B061F061304600F032FB08B1FFF777
:1024F0003BFF102066637462174E70600020B0606E
:1025000035608020F060002030617061B061F06162
:10251000304600F01DFB08B1FFF726FF266374620A
:1025200000220521252001F092FB252001F0B8FBB7
:1025300006B070BD181002400400014000280040A1
:102540001C1002403C044242003801400008014097
:102550006826002044000240AC26002030B400F180
:102560003C021378012B08BF02201BD001231370FB
:102570000223537003685C6824F070045C60036895
:102580005C680D682C435C6003689C6824F08004E0
:102590009C6000688368496819438160012050701D
:1025A0000020107030BC7047704770472DE9F0472D
:1025B000804617460D469946B80001F0BBFB5FEA1E
:1025C000000A57D0542001F0B5FB06004FD00AEBAB
:1025D0008700001FC6F830A0C708089CFF0007F05E
:1025E000070006F134012A7801F8012B15F8012BB8
:1025F000A2B12A7801F8012B15F8012B72B12A78C3
:1026000001F8012B15F8012B42B12A7801F8012BB2
:1026100015F8012B12B1001D1028E4D3002086F814
:102620004300072C28BF062406F14405F4622C6001
:102630006860301D01F06DFC06F1180001F069FCC6
:10264000C4F10700B061366176620020A86028738B
:102650004A464146384601F097FC3060099800B17F
:102660000660304600F00AF80120BDE8F0875046C9
:1026700001F0F0FB4FF0FF30BDE8F08770B5044685
:1026800001F0D8FCDFF8AC54E86C401CE864A86AA0
:10269000C8BBAC62E86C01283DD1DFF89C643046D1
:1026A00001F02AFC06F1140001F026FC06F12800D6
:1026B00001F022FC06F13C0001F01EFC06F1500086
:1026C00001F01AFC06F1640001F016FC06F1780036
:1026D00001F012FC05F1740001F00EFC05F1880612
:1026E000304601F009FC284601F006FC05F1140013
:1026F00001F002FC05F1380001F0FEFB05F1740069
:10270000E8622E6307E0A86D28B9E06AA96AC96A81
:10271000884228BFAC62A86E401CA8660121686D83
:10272000E26A914008436865211DE26ADFF8080407
:1027300002EB820300EB830001F0EEFB01F093FC5F
:10274000A86D68B1A86AE16AC06A884208D2DFF859
:10275000EC134FF080500860BFF34F8FBFF36F8FC3
:1027600070BD70B5050033D0DFF8C843206F38B1B5
:10277000502080F31188BFF34F8FBFF36F8FFEE7B8
:10278000206F401C2067266DA06A001D01F0EAFB47
:1027900040B9A06A616DC06A012202FA00F021EA24
:1027A00000006065AD19A06A4560B542A06A04D218
:1027B000011D206B01F0BCFB07E0011DE06A01F088
:1027C000B7FBE06E854238BFE56600F083F840B99C
:1027D000DFF868134FF080500860BFF34F8FBFF3EE
:1027E0006F8F70BD70B54FF4007001F0A3FA050053
:1027F00062D0542001F09EFA04005AD0256305F5FA
:10280000FE70C508ED0005F0070004F134010FF279
:102810003832137801F8013B12F8013BABB1137861
:1028200001F8013B12F8013B7BB1137801F8013B41
:1028300012F8013B002B08D0137801F8013B12F885
:10284000013B13B1001D1028E3D3002004F144061E
:1028500084F84300E06230607060201D01F059FB95
:1028600004F1180001F055FB0720A06124616462A7
:102870000020B060307300220FF24D21284601F095
:1028800083FB20602046FFF7F9FE502080F311887B
:10289000BFF34F8FBFF36F8FDFF8A4024FF0FF310C
:1028A000C1660121816500210165BDE8704001F02C
:1028B0008FBB284601F0CEFA502080F31188BFF379
:1028C0004F8FBFF36F8FFEE7DFF87402016F491C73
:1028D0000167704770B5DFF85C52286F002600244E
:1028E00038B9502080F31188BFF34F8FBFF36F8F3B
:1028F000FEE701F09FFB286F401E2867286F002825
:1029000047D1E86C00BB44E0E868C66806F11800EF
:1029100001F028FB301D01F025FB686DF26A0121F2
:10292000914008436865311DF26ADFF8180202EB36
:10293000820300EB830001F0EFFAF06AA96AC96A2A
:10294000884224BF0120286628680028DCD156B1BF
:10295000E86A006810B94FF0FF3003E0E86AC06829
:10296000C0684068E866EE6D3EB100F016F808B148
:1029700001202866761EF8D1EC65286E48B1DFF894
:10298000BC114FF0805001240860BFF34F8FBFF39C
:102990006F8F01F068FB204670BDF8B5DFF89451E9
:1029A000286F002400285CD1286D461C2E651CD1A0
:1029B000E86A006838B1502080F31188BFF34F8F68
:1029C000BFF36F8FFEE7E86A296BE9622863686EE0
:1029D000401C6866E86A006810B94FF0FF3003E0F9
:1029E000E86AC068C0684068E866E86E86422CD332
:1029F0001EE0381D01F0B6FAB86A18B107F11800E8
:102A000001F0B0FA686DFA6A0121914008436865E7
:102A1000391DFA6ADFF82C0102EB820300EB830018
:102A200001F07AFAF86AA96AC96A884228BF0124C3
:102A3000E86A006810B94FF0FF3005E0E86AC06846
:102A4000C76878688642D4D2E866A96ADFF8F400DD
:102A5000C96A01EB810291000858022804D30124BD
:102A600002E0E86D401CE865286E00B101242046B4
:102A7000F2BDDFF8C000016F11B10121016670479E
:102A80000166416DB1FA81F1C1F11F0101EB8102D3
:102A90009100DFF8A4208B583BB9502080F31188B7
:102AA000BFF34F8FBFF36F8FFEE7891801F1080363
:102AB0004A6852684A609A4204BF52684A6049684C
:102AC000C9688162704700002DE9F0411B4CDFF8B6
:102AD0006880DFF86C704FF080551EE0386F401C46
:102AE00038677869461EB641FFF7F4FEF60FA6B9BF
:102AF00001F0A0FA386AC668301D01F033FAF86CAC
:102B0000401EF864786B401E786301F0ACFA306BBD
:102B100001F0A0F9304601F09DF9786B0028DDD175
:102B2000D8F800000228F8D32560BFF34F8FBFF319
:102B30006F8FF2E7F42300201C25002004ED00E055
:102B4000F42300201C25002049444C4500000000CF
:102B500010B410B910BC012070470268DFF8BC3215
:102B60009B18142400F13801B3FBF4F39B008B6035
:102B7000DFF8AC324B60022380F8213013684468E0
:102B80006FF30D13234384682343C468234304690C
:102B900023434469234384692343C4692343136063
:102BA00000220A60012180F8211080F820200020F6
:102BB00010BC7047F0B41C4690F820500023012D43
:102BC00008BF02203DD0012580F8205090F8215008
:102BD000012D32D1022580F8215000F12C05EB6047
:102BE000066837687F087F00376001266F69BE403E
:102BF0002F697E60066874604468102C046803D1F5
:102C0000A2600268D16002E0A1600168CA60016848
:102C10002A68002A0A6818BF42F00E0206D122F084
:102C200004020A6001680A6842F00A020A60006849
:102C3000016841F00101016002E080F820300223C8
:102C40001846F0BC704710B590F8211000240229F6
:102C500004D034300421416001243FE001680A6857
:102C600022F00E020A6001680A68520852000A60E7
:102C70000168DFF8B021914208BF012122D0DFF8BE
:102C8000A821914208BF10211CD0DFF8A021914259
:102C900008BF4FF4807115D0DFF89421914208BF2E
:102CA0004FF480510ED0DFF88C21914208BF4FF4D1
:102CB000803107D0DFF8802191420CBF4FF48011A2
:102CC0004FF08071DFF874211160012180F821102C
:102CD00080F82040416B0A0018BF8847204610BD8D
:102CE00078B400F1280104264A6913680268146860
:102CF0008D69AE40334233D0660731D513689B06E9
:102D000003D4136823F0040313600268454B9A420E
:102D100008BF04221DD0444B9A4208BF402218D05D
:102D2000424B9A4208BF4FF4806212D0404B9A4205
:102D300008BF4FF480420CD03E4B9A4208BF4FF47C
:102D4000802206D03C4B9A420CBF4FF480024FF0D9
:102D500080623A4B1A6049680A005BD074BC08472D
:102D60000226AE40334239D0A60737D513689B06FA
:102D700006D4136823F00A031360012280F821208F
:102D80000268284B9A4208BF02221DD0264B9A4265
:102D900008BF202218D0254B9A4208BF4FF400727A
:102DA00012D0234B9A4208BF4FF400520CD0214B53
:102DB0009A4208BF4FF4003206D01F4B9A420CBF14
:102DC0004FF400124FF000721C4B1A60002280F882
:102DD000202009680A001DD074BC0847082606FA9E
:102DE00005F52B4216D0230714D5136823F00E03E4
:102DF000136001228B699A404B695A6001220A6173
:102E000080F82120002280F8202089680A001CBF59
:102E100074BC084771BC704700000000F8FFFDBF9C
:102E200000000240080002401C0002403000024046
:102E300044000240580002406C000240040002407E
:102E40002DE9F041044682B02078DFF8E454C00751
:102E50004CD5686800F00C00042807D0686800F0C2
:102E60000C0008280BD16868C00308D528688003C7
:102E70003CD56068002839D10120BDE8F681606842
:102E8000B0F5803F03D1286840F4803013E008B9E2
:102E900028680AE0B0F5A02F286806D140F4802009
:102EA0002860286840F4803005E020F480302860F5
:102EB000286820F480202860606858B100F0CAFDBE
:102EC00006462868800311D400F0C4FD801B6528E5
:102ED000F7D328E100F0BEFD06462868800305D53B
:102EE00000F0B8FD801B6528F7D31CE1207880072F
:102EF00018D5686810F00C0F07D0686800F00C0057
:102F0000082825D16868C00322D42868800702D524
:102F100020690128B0D12868616920F0F80040EAF2
:102F2000C10028602078000740D5A169DFF80C04B3
:102F3000002965D00121016000F08CFD0646686A19
:102F4000800724D400F086FD801B0328F7D3EAE035
:102F50002069DFF8EC7368B10120386000F07AFD79
:102F6000064628688007D6D400F074FD801B03282D
:102F7000F7D3D8E0386000F06DFD0646286880077A
:102F8000D0D500F067FD801B0328F7D3CBE0DFF836
:102F9000A4030068C0084FF47A71B0FBF1F0009010
:102FA00000BF0098411E00280091F9D12078400709
:102FB00071D5E8690027C00009D4E86940F0805065
:102FC000E8610127E86900F0805000900098DFF880
:102FD0007483D8F80000C0051FD4D8F8000040F46E
:102FE0008070C8F8000000F035FD0646D8F80000F3
:102FF000C00512D400F02EFD801B6528F6D392E0A8
:10300000016000F027FD0646686A8007CED500F013
:1030100021FD801B0328F7D385E0E068012803D158
:10302000286A40F0010012E008B9286A09E0052882
:10303000286A06D140F004002862286A40F00100A6
:1030400005E0400840002862286A20F00400286259
:10305000E06868B100F0FEFC064641F28938286A53
:10306000800713D400F0F6FC801B4045F7D35AE0EC
:1030700000F0F0FC064641F28938286A800705D541
:1030800000F0E8FC801B4045F7D34CE01FB1E86935
:1030900020F08050E861E069002847D0696801F0BD
:1030A0000C0108293FF4E8AE0228DFF894722DD114
:1030B0000020386600F0CEFC06462868800105D561
:1030C00000F0C8FC801B0328F7D32CE0206AB0F581
:1030D000803F05D16868A16820F40030084368602B
:1030E0006868216A20F474100843616A08436860C4
:1030F0000120386600F0AEFC06462868800115D431
:1031000000F0A8FC801B0328F7D30CE000203866F1
:1031100000F0A0FC06462868800107D500F09AFC64
:10312000801B0328F7D30320BDE8F6810020BDE80B
:10313000F6812DE9F041844E04463068884600F05F
:103140000700404509D23068C00848EAC000306036
:10315000306800F0070040456BD12068744F81074C
:1031600012D5400703D5786840F4E0607860207895
:10317000000703D5786840F4605078607868A168EB
:1031800020F0F000084378602078C00742D56068DE
:10319000012802D13968890303E00228396802D185
:1031A000890102D445E0890743D57968890840EA56
:1031B0008100786000F04EFC0546606801280CD163
:1031C000786800F00C00042824D000F043FC401B79
:1031D00041F289318842F3D319E002280CD1786892
:1031E00000F00C00082815D000F034FC401B41F220
:1031F00089318842F3D30AE0786810F00C0F09D0C7
:1032000000F028FC401B41F289318842F4D30320AE
:10321000BDE8F081306800F0070080450CD23068CE
:10322000C00848EAC0003060306800F00700404540
:1032300002D00120BDE8F0812078400705D57868EC
:10324000E16820F4E060084378602078000706D544
:103250007868216920F4605040EAC100786000F08D
:103260000EF87A683949C2F30312515CC8403149FB
:103270000860002000F034FF0020BDE8F08130B489
:103280000FF2D80185B03CC901A83CC00FF2DC00A8
:103290000088ADF800002E48016801F00C02082AF1
:1032A00016D101AAC1F38343C9039A5C0BD5006808
:1032B000214951436A46C0F34040805C05B030BCB0
:1032C000B1FBF0F0704705B030BC22485043704766
:1032D00005B030BC1848704716481D4A006812688F
:1032E0001D49C2F3022206E01248194A006812681A
:1032F0001949C2F3C222515CC84070470F220260D4
:10330000134A136803F003034360136803F0F003E8
:103310008360136803F4E063C3601268D20802F4A8
:10332000E06202610848006800F00700086070472A
:10333000001002401800002000127A00800442426F
:10334000000042420070004000200240BC530008D0
:103350000410024000093D001C550008020304054A
:10336000060708090A0B0C0D0E0F101001020000D1
:1033700080B50068414988421BD14148016841F449
:10338000000101600022006800F4000000900521A7
:103390000098132000F05BFC132000F081FC002259
:1033A0000521142000F053FCBDE80240142000F079
:1033B00077BC01BD00F22C41D0F85C0400F0FCBEEB
:1033C00000EB4112D0F85C04D2F83C2200F01FBFA1
:1033D00000EB4112D0F85C04D26B00F04ABFD0F889
:1033E0005C0400F0C7BF10B50446A068022818BFEF
:1033F000FEF7BAFFD4F85C04012100F0ACFFD4F86A
:103400005C04BDE8104000F085BF10B50446D4F858
:103410005C0400F0A3FFA06920B11A48016841F0E4
:103420000601016010BDD0F85C0400F09DBF10B52E
:10343000044615481149C0F85C44C4F820020160F4
:10344000082141600221816000218161C161016226
:1034500000F0A0FF08B1FEF787FFD4F82002182380
:103460000022002101F0F9FAD4F8200258230022AA
:10347000802101F0F2FA002010BD0000005C004045
:103480001C10024010ED00E0301A002080B5D0F88A
:10349000200200F0D7FF0146002021B1022901D10E
:1034A000012002BD022002BD10B51C461346D0F813
:1034B0002002224601F097F80146002021B102299E
:1034C00001D1012010BD022010BD80B5D0F820022E
:1034D00001F0A9F80146002021B1022901D1012003
:1034E00002BD022002BD80B5D0F8200201F0DEF856
:1034F0000146002021B1022901D1012002BD022094
:1035000002BD80B5D0F8200201F0FBF80146002092
:1035100021B1022901D1012002BD022002BDD0F853
:10352000200201F07F0200EB421009064CBF90F828
:103530002A0090F82A02704780B5D0F8200201F0E6
:1035400041F80146002021B1022901D1012002BD2C
:10355000022002BD80B5D0F8200201F092F80146A9
:10356000002021B1022901D1012002BD022002BDAB
:1035700080B5D0F8200201F074F80146002021B196
:10358000022901D1012002BD022002BD704770470F
:10359000704780B50223C0F8F43100F118031A60B7
:1035A0005A6000E080B513460A460021FFF7D2FFBB
:1035B000002002BD80B50323C0F8F43100F5847308
:1035C0001A605A6000E080B513460A460021FFF7F2
:1035D000CFFF002002BD80B50421C0F8F411002304
:1035E0000022E2E780B50521C0F8F4110023002293
:1035F000ECE70000F8B50446487809284CD8DFE825
:1036000000F0738C4B864B09054B6025204600F07B
:1036100039F994E08888002804BFC88800283BD185
:10362000887804F5FE7500F07F062878032833D0EB
:10363000AE7031462046FFF77FFF2046FFF7CBFFF5
:10364000002E14BF02200120287078E03D4F4888EA
:103650003870387802281FDA04F5FE7529780229B7
:1036600023D0032918D1261D40B90220287000213B
:1036700000203060204600F09AFD5DE0316888420D
:103680005AD0C9B2204600F092FD39783160204608
:1036900000F082FD02284FD180212046FFF723FF52
:1036A00000212046FFF71FFF49E0002844D060605A
:1036B000032129700146204600F06EFD0228EBD060
:1036C0003AE0C8880128E7D194F8FC01022804D028
:1036D0000328E1D10122211D15E0211D00204860B1
:1036E000012204F108010EE004F5FE752878801E21
:1036F0000128D1D8A968012001B10320211D02228F
:10370000886004F10C012046FFF743FF17E048886A
:10371000012814D104F5FE7509E004F5FE7528783A
:10372000801E0128B8D84888012808D10020AA693D
:10373000A8602046926890472046FFF74CFF002083
:10374000F2BD0000A927002038B5044604F5FE723A
:103750000D46107803280CD12879022809DA9269DD
:10376000926820469047E88858B92046FFF733FF13
:1037700007E080212046FFF7B6FE00212046FFF734
:10378000B2FE002032BD70B504460D462878297976
:1037900000F06000202807D104F5FE7229469269E6
:1037A0009268204690476BE0687800283DD0012859
:1037B0001CD0032864D104F5FE763078022802D0AC
:1037C000032805D054E0002918BF802958D054E0C0
:1037D000688828B900291EBF80292046FFF783FE8C
:1037E000B26992682946204690471AE004F5FE76B1
:1037F0003078022802D0032805D039E0002918BF0C
:1038000080293DD039E06888002839D111F07F0047
:1038100007D02046FFF775FEB26992682946204618
:1038200090472046FFF7D7FE2AE094F8FC010228D3
:1038300002D0032804D01BE011F07F0020D01CE050
:1038400001F07F0004EB00100A064CBF00F11405E4
:1038500000F582752046FFF762FE401E8041C0439E
:10386000C00F2860022229462046FFF792FE07E09B
:1038700080212046FFF737FE00212046FFF733FE68
:10388000002070BD38B50D4604466988080A401E00
:10389000062800F27E80DFE800F0041F2E7C7C69A1
:1038A0007200D4F81022207C126869469047BDF857
:1038B000001000291CBFE98800290CD0BDF80020A9
:1038C0008A4288BF0A46ADF800200146BDF80020B4
:1038D0002046FFF75EFE31BD04F504704168207C90
:1038E0000028684604D1896A884702214170DEE7D2
:1038F000C96A8847F9E7C8B205282ED8DFE800F082
:10390000030A11181F26D4F81022207C5268694639
:103910009047CCE7D4F81022207C92686946904703
:10392000C5E7D4F81022207CD26869469047BEE7EC
:10393000D4F81022207C126969469047B7E7D4F882
:103940001022207C526969469047B0E7D4F81022D3
:10395000207C926969469047A9E704F504736A469A
:103960005B689B6BC9B220469847A0E7207C80B972
:1039700004F5047168464968496B884797E7207CDD
:1039800038B904F5047168464968096B884707210E
:10399000ACE780212046FFF7A6FD00212046FFF777
:1039A000A2FD31BD0A7802704A784270CB788A78DD
:1039B00002EB032242804B790A7902EB03228280D8
:1039C0008A79C97902EB0121C180704710B504469C
:1039D0008021FFF788FD2046BDE810400021FFF759
:1039E00082BD00B9704730B40346002400E0641C77
:1039F00013F8015B002DFAD12406E30D9B1C138004
:103A000012880A7003224A70022208E010F8013B73
:103A1000D2B25354521CD2B200235354521C0378D6
:103A2000002BF3D130BC704780B50C48016841F0E1
:103A300010010160032000F0FDF8002000F050FBB1
:103A4000FEF7BAFC002002BD054841680278511813
:103A50004160704702484068704700000020024003
:103A60000C0000202DE9F041044682B02078C00708
:103A700053D5654DA8690026C00009D4A86940F057
:103A80008050A8610126A86900F08050009000983D
:103A90005E4F3868C00510D4386840F480703860D4
:103AA000FFF7D8FF80463868C00506D4FFF7D2FF7D
:103AB000A0EB08006528F6D321E0E86910F4407017
:103AC0001EBF616801F4407188421BD05049E8690B
:103AD00001220A6020F4407000220A60E861C007F9
:103AE00010D5FFF7B7FF804641F28937E8698007B4
:103AF00008D4FFF7AFFFA0EB0800B842F6D30320CD
:103B0000BDE8F681E869616820F440700843E86127
:103B10001EB1A86920F08050A8612078800706D5E2
:103B2000394D2868A16820F4404008432860207877
:103B3000C00606D5344D2868E16820F480000843AB
:103B400028600020BDE8F68170B50FF2D40286B07F
:103B500078CA014601A878C00FF2D4000088ADF8F9
:103B600000000020012920D0022941D0102949D18C
:103B700028494A680B68DB0144D501A8C2F3834396
:103B8000D203185C09D54A686C46C2F34042224B06
:103B9000125DB3FBF2F2504301E0204A5043496802
:103BA00049022FD4400003212AE01A490A6A40F250
:103BB00002331340B3F5817F08BF4FF4004021D09A
:103BC00002F44073B3F5007F06D1496A890719D51D
:103BD00049F6404006B070BD02F44072B2F5407F35
:103BE00010D1096889030DD54FF2244006B070BD8D
:103BF000FFF77AFB07494968C1F38131491C490045
:103C0000B0FBF1F006B070BD04100240007000403F
:103C1000400442420010024000127A0000093D00B8
:103C200002030405060708090A0B0C0D0E0F1010FD
:103C3000010200001F490A684FF6FF031A4000F016
:103C4000070042EA00201C4A10430860704730B465
:103C5000184B1B68C3F30223C3F10704052C28BFCC
:103C600004241D1D072D34BF0023DB1E012505FA8A
:103C700004F4641E2140994005FA03F35B1E1A40C8
:103C800011430901002807D50C4A00F00F008018E5
:103C900000F8041C30BC7047094A815430BC70479E
:103CA000012100F01F029140064AFFE7400942F857
:103CB000201070470CED00E00000FA0518ED00E060
:103CC00000E400E000E100E0002200F0DFBE0000C0
:103CD00010B5104C10490022204600F03DFA08B102
:103CE000FEF742FB0D49204600F049FA08B1FEF705
:103CF0003BFB0B492046FDF7ADFF08B1FEF734FB57
:103D0000204600F044FA00281CBFBDE81040FEF732
:103D10002BBB10BD901E002064010020E400002099
:103D2000D40000200249FFE701200860704700002E
:103D300020000E422DE9F0410446FEF7C5FD6D4F0F
:103D4000B8680025A84608BB07F1180307F1180258
:103D500013F007034FF44061104605D0D01DC00892
:103D6000C000C0F54061511809180839C908C900D8
:103D700038607D60B9604D600D600A1A4260016074
:103D800040683861F8604FF000407861786904421B
:103D900050D1002C4ED0083414F0070F1FBF04F18F
:103DA000080004F00701441A14F0070F07D0502050
:103DB00080F31188BFF34F8FBFF36F8FFEE7CCB353
:103DC000F868A04236D33E68384601E030460E46D9
:103DD0007168A14202D231680029F7D1B9688E42D8
:103DE00028D0016801F10805316801607068011B85
:103DF00011290FD3A01910F0070207D0502080F32B
:103E00001188BFF34F8FBFF36F8FFEE7416074607F
:103E100000F04BF8F8687168401A3969F860884218
:103E200038BF38617068796908437060C6F80080EF
:103E300005F00708FEF74EFDB8F1000F07D050203F
:103E400080F31188BFF34F8FBFF36F8FFEE72846D3
:103E5000BDE8F08138B538B3A0F10804254D60689D
:103E60006969084207D1502080F31188BFF34F8F52
:103E7000BFF36F8FFEE722683AB1502080F31188BC
:103E8000BFF34F8FBFF36F8FFEE788436060FEF78D
:103E90001BFDE86861680818E860204600F005F836
:103EA000BDE83140FEF716BD31BD30B4114A1146B0
:103EB00000E021460C688442FBD34B685C188442C6
:103EC00003D14068C0184860084643680C681D1854
:103ED000A54208D19268944204D06268D218426028
:103EE000246800E014460460814218BF086030BCBA
:103EF00070470000D005002000F1080141604FF03C
:103F0000FF31816000F10801C160016100210160A1
:103F1000704700210161704742684A6093688B6076
:103F200093685960916008610168491C016070479D
:103F300030B40A6812F1010F08BF036907D000F11D
:103F4000080300E023465C682568AA42FAD25A6852
:103F50004A6091608B60596008610168491C01608A
:103F600030BC70474368016982689A608368426820
:103F70005A604A68824204BF82684A600022026135
:103F80000868401E0860704749084900A0F10C030A
:103F90004FF0807C5960C3F808C00FF20D01196022
:103FA00040F8202D2038704747494968502011F1CA
:103FB000010F06D080F31188BFF34F8FBFF36F8FCF
:103FC000FEE780F31188BFF34F8FBFF36F8FFEE7DB
:103FD0001CB53E483C4C01780191FF2101700178ED
:103FE0008DF800109DF8001001F05001217007219C
:103FF00005E09DF800205200491E8DF800209DF834
:1040000000201206F5D4090201F4E061A1600199D3
:1040100001702F48016841F470010160016841F0AE
:104020007041016000F044F80020606000F07BFD0A
:10403000002016BD502080F31188BFF34F8FBFF3CF
:104040006F8F21494A68521C012A4A600AD12149CE
:104050000968090606D080F31188BFF34F8FBFF3BC
:104060006F8FFEE770471848416839B9502080F3D8
:104070001188BFF34F8FBFF36F8FFEE7491E41607A
:1040800004BF002080F31188704780B5502080F372
:104090001188BFF34F8FBFF36F8FFEF77EFC18B10F
:1040A0000C494FF080500860002080F3118801BD5A
:1040B00009490A4809684FF47A72B1FBF2F1491EC6
:1040C00041600721016070470000002000E400E02B
:1040D00020ED00E004ED00E01800002010E000E01A
:1040E00010B5014688B000221920FFF7B0FD192055
:1040F000FFF7D6FD1448154C016841F400610160DA
:1041000001A9006800F400600090009802A8FFF781
:10411000F5F8FFF7E9F80E49216040F2E731E16078
:104120000C49B0FBF1F0401E606000202061A060EF
:104130002046FCF719FF20B92046FCF74BFF08B0DA
:1041400010BD012008B010BD18100240F02600205C
:10415000002C014040420F0010B508B9022010BDEC
:1041600000F5FE739C690CB100249C6101B159619A
:10417000012119700270FFF75AF9002010BD0022CA
:10418000002914BFC0F8141202221046704780B5EF
:10419000FFF77CF9002002BD10B5D0F814220224EC
:1041A0001AB11268904700B90024204610BD80B5AE
:1041B000D0F814225268EAE038B5044604F50275D6
:1041C0002846FFF7EFFB04F5FA7001210160418BEF
:1041D0004160007D10F01F0103D002290BD005D3F0
:1041E0000EE029462046FFF705FA0EE02946204654
:1041F000FFF7AAFA09E029462046FFF7C4FA04E0CF
:1042000000F080012046FFF76EF9002032BD38B57E
:104210000446104604F5FA7301BB1A68032A04F534
:10422000827124D18D68CA68AA420AD2AB1A8B6007
:10423000934238BF1A46014692B22046FFF7C3F9AF
:1042400015E0186A0169080004D0187A032804BF31
:10425000204688472046FFF7BEF908E0186A8269C1
:10426000100004D0187A032804BF2046904700208D
:1042700032BD38B505460029104605F5FA743ED121
:104280002268022A05F1140133D18A68CB6893426F
:104290000AD2D21A8A60014692B22846FFF782F902
:1042A00000230022002114E04868B0FBF3F103FB77
:1042B000110191B9984210D3616888420DD2002251
:1042C00000212846FFF76EF90020606000230022DD
:1042D00000212846FFF74CF90BE0206AC16808006E
:1042E00004D0207A032804BF284688472846FFF7D1
:1042F00079F9207B01280BD10020207308E0206A87
:104300004269100004D0207A032804BF2846904751
:10431000002032BD10B50446402300220021FFF7E3
:10432000C3F84020C4F81001402300228021204619
:10433000FFF7BAF8201D4021C16104F5FE7201218A
:104340001170D16929B1926901685268C9B22046D9
:104350009047002010BD01740020704700F5FE70EA
:1043600001784170042102E000F5FE70417801708F
:104370000020704780B500F5FE710A78032A04D149
:104380008969C9690A0018BF8847002002BD9047A3
:10439000002002BD70B586B00546002415B9012085
:1043A00006B070BD05F58566707818B9307028467E
:1043B000FEF7DEFF03207070286800F0CCFB83B0AE
:1043C000291D68462022FCF779FB0EBC286800F006
:1043D000BBFB2868002100F0C3FB05F12800012188
:1043E0004170047084810021C1700161416181616B
:1043F000641C20300F2CF2D3002405F50A704170A4
:10440000A0F5FA7104700C800021C1700161416156
:104410008161641C20300F2CF1D383B0291D6846C4
:104420002022FCF74BFB0EBC286800F09BFB002011
:1044300085F8240001207070286800F09EFE00209E
:1044400006B070BD10B5044694F82804012801D1C7
:10445000022010BD012084F8280401212046FFF726
:1044600097F8206800F087FE206800F06FFBA5E059
:1044700010B50446206800F082FE000444BF2046C8
:1044800000F063F9206800F07AFE40051BD5206833
:10449000B0F844104FF6FF321140A0F84410204607
:1044A000FEF7A1FF94F8280401280CD0012084F81D
:1044B00028040021002084F82400206800F055FE24
:1044C000002084F82804206800F059FE400407D535
:1044D0002068B0F844104BF6FF721140A0F8441069
:1044E000206800F04CFE800407D52068B0F8441026
:1044F0004DF6FF721140A0F84410206800F03FFE16
:10450000C0041AD52068B0F840104FF6FB72114075
:10451000A0F840104FF6F7722068B0F84010114034
:10452000A0F840102046FEF77EFF2068B0F8441047
:104530004EF6FF721140A0F84410206800F01FFEF4
:1045400000051DD52068B0F8401041F00801A0F822
:1045500040104FF2FF722068B0F844101140A0F8EC
:1045600044102068B0F8401041F00401A0F8401059
:10457000206800F004FEC0045CBF2046FEF745FF43
:10458000206800F0FCFD80050AD52068B0F84410D2
:104590004FF6FF521140A0F844102046FEF71FFFCF
:1045A000206800F0ECFDC00507D52068B0F8441085
:1045B0004FF6FF621140A0F8441010BD002084F8AF
:1045C000280410BD10B5044694F82804012801D130
:1045D000022010BD012084F8280484F824102068EB
:1045E00000F0C3FDEAE738B5044601F07F0004EBB4
:1045F00040100D064CBF283000F50A7001F07F0511
:104600000570C90941700261C37094F8281401292A
:1046100001D1022032BD012184F82814014620680E
:1046200000F0B0FA69E010B5044601F07F0004EB39
:1046300040100A064CBF283000F50A7001F07F02D6
:104640000270C909417094F82814012901D102208F
:1046500010BD012184F828140146206800F0BDFB3C
:10466000ACE710B501F07F0400EB441404F50A74C4
:1046700001F07F016261A3610022E261627021703A
:104680000EE010B501F07F0400EB4414283401F073
:104690007F016261A3610022E261217001226270E8
:1046A0002146006800F042FC002010BD38B50446E9
:1046B000080605D501F07F0004EB4010283003E028
:1046C00004EB411000F50A700123837001F07F05AF
:1046D0000570C909417094F82814012901D10220FC
:1046E00032BD84F828340146206800F0DDFC25B98D
:1046F000206804F22C4100F045FD002084F82804D5
:1047000032BD10B5044608060A4605D502F07F0002
:1047100004EB4010283003E004EB411000F50A7070
:104720000023837001F07F010170D109417094F87A
:104730002814012901D1022010BD012184F8281478
:104740000146206800F0D6FC38E72DE9F84F044612
:104750000020ADF80200ADF8000048F68F7A4BF665
:104760008F7B40F68F7748F60F7828E0018808EABB
:104770000101018004F128052068B0F850102A7862
:1047800001EBC20100EB4100D0F804048005800D6C
:10479000E86169694018686100212046FEF718FE4B
:1047A00094F8240058B1A86948B994F82400216805
:1047B00040F08000A1F84C00002084F8240020681C
:1047C00000F144010A88ADF80220120440F1428150
:1047D000BDF8022012F00F096DD1BDF80220D206FB
:1047E000C4D50288ADF8002004F50A75BDF8002094
:1047F000120518D589892A7801EBC20100EB410026
:1048000004F22C41D0F80C0483059B0DEB61AA88BF
:10481000206800F0D0FC20680188394001802046E3
:10482000FEF7C8FDCBE7BDF800100904C7D5018825
:10483000394001802068B0F850102A7801EBC2019D
:1048400000EB4100D0F80C0483059B0DEB6108D010
:10485000AA886969206800F0AEFC6869E9690818EF
:10486000686100212046FEF7ABFD2068B0F85010CB
:1048700000EB410029693F2900F20C4008D34A09A6
:1048800011F01F0F08BF521E910241F4004104E0D5
:104890004A08C90748BF521C910289B201602068CA
:1048A00001880BEA010181F4405141F4004141F0DB
:1048B0008001018083E730F82910ADF80010BDF8C1
:1048C000001009045BD530F82910394020F8291070
:1048D00004EB491000F50A752B782068A97ADA00F4
:1048E00079B9B0F85030D21800EB4201D1F80C146D
:1048F0008E05B60D2FD0AA886969334600F05BFC9F
:1049000029E030F823305B04B0F850300AD5D218D3
:1049100000EB4201D1F804148E05B60D0FD0EA88E1
:10492000334609E0D21800EB4201D1F80C148E0591
:10493000B60D04D02A893346696900F03CFC216831
:10494000287831F820200AEA020242F4004242F0BC
:10495000C00221F82020E9697118E96169697218BB
:104960006A61AB6913B129698E4204D22978204665
:10497000FEF726FD03E029782046FFF772FEBDF81A
:10498000000000067FF51BAF04EB491000F128057D
:10499000206830F8291008EA010120F829102A7847
:1049A0002368A87AD10080B9B3F85020891803EBA6
:1049B0004100D0F8040483059B0DEB6130D0AA8838
:1049C0006969206800F0E5FB2AE033F822205206EE
:1049D000B3F850200AD5891803EB4100D0F804043D
:1049E00083059B0DEB610FD0EA8809E0891803EB82
:1049F0004100D0F80C0483059B0DEB6104D02A899B
:104A00006969206800F0C5FB2168287831F820200A
:104A10000AEA020242F4404242F0800221F82020D9
:104A200020682978B0F8502002EBC10200EB420068
:104A3000D0F804048005800DE8616A6982186A6113
:104A40002046AB69002B02D1FEF7C2FCB7E6FFF7A8
:104A500018FEB4E60020BDE8F28F5FEA016C05D5D0
:104A600001F07F0100EB4110283003E000EB411022
:104A700000F50A701AB900218172838004E00121D7
:104A80008172C380190C01810020704700B500BFFE
:104A9000130096469446103928BFA0E80C50FAD867
:104AA0005FEA417C28BF0CC048BF40F8042BC9070F
:104AB00028BF20F8022B48BF00F8012B00BD0000E2
:104AC000EFF30980BFF36F8F1D4B1A6820E9F00FD9
:104AD000106008B54FF0500080F31188BFF34F8F7E
:104AE000BFF36F8FFDF7C5FF4FF0000080F3118813
:104AF000BDE8084019680868B0E8F00F80F309883D
:104B0000BFF36F8F70470E4B19680868B0E8F00F5D
:104B100080F30988BFF36F8F4FF0000080F3118896
:104B20004EF00D0E704707480068006880F3088853
:104B300062B661B6BFF34F8FBFF36F8F00DF000027
:104B40001C24002008ED00E00EB417E0B0F840107F
:104B500041F43F4119E3B0F8401044F2FF2213E35F
:104B6000002070470EB4012120F8401F0021018071
:104B700081800182018841F43F410180002003B01F
:104B800070470000F0B4CA78032A26D8DFE802F0A4
:104B9000021B0B120A7830F8223048F68F1423409B
:104BA00043F4007317E00A7830F8223048F68F1487
:104BB000234010E00A7830F8223048F68F14234062
:104BC00043F4C06307E00A7830F8223048F68F14C7
:104BD000234043F4806320F822300C78254630F8D7
:104BE000256048F68F731E4048F280023443144318
:104BF00020F825408D7A0E78002D5DD18D884F7874
:104C00006D086D00002FB0F8507007EBC6061BD082
:104C100000EB460404F5806425600C7830F82450DD
:104C20006D0608D530F824502B4043F4004343F080
:104C3000C00320F8243048F6BF74097830F82130DA
:104C4000234083F02003C2E000EB460606F58166B0
:104C50003560B0F850500E7805EBC60500EB450402
:104C60000D693F2D04F20C4408D36E0915F01F0F97
:104C700008BF761EB50245F4004504E06E08ED0756
:104C800048BF761CB502ADB225600C7830F82450D0
:104C90006D0408D530F824502B4043F4404343F0D2
:104CA000800320F824304BF68F74097830F82130D7
:104CB000234083F440538AE030F826501D4045F4E9
:104CC000014545F0800520F82650B0F850500E7888
:104CD00005EBC605CE8800EB450505F58065760831
:104CE00076002E60B0F850500E7805EBC60500EB4C
:104CF00045040D8904F581646D086D0025604D78CB
:104D00000C78002D30F824502FD16D0408D530F8E0
:104D100024501D4045F4404545F0800520F82450BE
:104D200048F2C0050C7830F82460760605D530F8D6
:104D300024601E402E4320F824600C7830F8246054
:104D400033402B4320F824304BF68F750B7830F826
:104D500023402C4084F44054144320F8234048F668
:104D6000BF74097830F8213030E06D0408D530F890
:104D700024501D4045F4404545F0800520F824505E
:104D80000C7830F824506D0608D530F824501D40BA
:104D900045F4004545F0C00520F824500C7830F863
:104DA00024502B4043F4404343F0800320F8243048
:104DB00048F6BF750B7830F823402C40144320F898
:104DC00023404BF68F74097830F8213023401A4382
:104DD00020F821200020F0BC704730B40A784C78CD
:104DE0008B7A9BBB002C30F8223017D05B060AD59B
:104DF00030F8223048F68F74234043F4004343F0E8
:104E0000C00320F8223048F6BF73097830F821201B
:104E10001A4042F4004242F0800282E05B040AD56C
:104E200030F8223048F68F74234043F4404343F077
:104E3000800320F822304BF68F73097830F8212058
:104E40001A4042F4004242F080026AE0002C30F83E
:104E5000224048F68F732FD1640408D530F82240E1
:104E60001C4044F4404444F0800420F8224048F2BE
:104E7000C0040A7830F822506D0605D530F822506B
:104E80001D40254320F822500A7830F822502B404C
:104E9000234320F822304BF68F750B7830F82340EF
:104EA00048F280022C40144320F8234048F6BF7497
:104EB000097830F8213032E0640408D530F8224017
:104EC0001C4044F4404444F0800420F822400A7816
:104ED00030F82240640608D530F822401C4044F4E3
:104EE000004444F0C00420F8224048F6BF750A7818
:104EF00030F82240234043F4404343F0800320F83D
:104F0000223048F280020B7830F823402C401443C2
:104F100020F823404BF68F74097830F82130234075
:104F20001A4320F82120002030BC704770B50D4690
:104F300004466A78A8692969012A064655D1814242
:104F40003ABF0E46801B0020A861A87A78B9AA88CB
:104F50006969B3B2204600F01CF9B4F85000297812
:104F600000EBC10004EB4000C0F8046434E0287892
:104F7000C10034F820004006B4F8500006D50818E7
:104F800004EB4000C0F804642A8905E0081804EB2B
:104F90004000C0F80464EA886969B3B2204600F0B2
:104FA000F8F8687850B9287834F8201048F68F72ED
:104FB000114041F4004141F0C0010BE001280BD148
:104FC000287834F8201048F68F72114041F440419F
:104FD00041F0800124F82010287834F8201048F699
:104FE000BF72114081F0300156E081423ABF0E4657
:104FF000801B0020A861A87AF0B1DAB9B4F850009B
:10500000297800EBC10004EB40003F2E00F2044081
:1050100009D3710916F01F0F08BF491E890241F418
:10502000004189B205E07108F20748BF491C8906B2
:10503000090C01606878E0B9B4F85000297800EBF9
:10504000C10004EB40003F2E00F20C4009D371096F
:1050500016F01F0F08BF491E890241F4004189B2B2
:1050600005E07108F20748BF491C8906090C016078
:105070000AE0012808D1B4F85000297800EBC100FB
:1050800004EB4000C0F804644BF68F72287834F8C3
:105090002010114081F4405141F4004141F0800161
:1050A00024F82010002070BD0B7848F2800253B91C
:1050B00001884BF6BF73194081F4805181F01001D3
:1050C0001143018014E04978002930F8231006D0FC
:1050D00048F6BF7C0CEA010181F0100105E04BF6B7
:1050E0008F7C0CEA010181F48051114320F82310D8
:1050F000002070474B780A78002B30F8223016D009
:105100005B060BD530F8223048F68F7C0CEA03039F
:1051100043F4004343F0C00320F8223048F6BF7345
:10512000097830F821201A4082F0300215E05B0443
:105130000BD530F8223048F68F7C0CEA030343F499
:10514000404343F0800320F822304BF68F730978F8
:1051500030F821201A4082F4405242F4004242F0DA
:10516000800220F821200020704711B98021A0F88A
:105170004C10002070470020704700207047B0F8A6
:1051800044007047002070471140A0F840100020F4
:10519000704700EB42005A1C521000F5806009D0A5
:1051A0000B7891F801C0891C43EA0C23521E20F8A9
:1051B000043BF5D1704700EB42005A1C521000F539
:1051C000806005D050F8043B21F8023B521EF9D113
:1051D00070470000122008801A4870470420088099
:1051E0001948704710B5194C0FF28C0003E010B548
:1051F000164C0FF2A4000A462146FEF7F2FB2046A9
:1052000010BD38B51A200880114D12484468016855
:105210008068401809D00822A91C00F01DF804225B
:1052200005F11201204600F017F8284632BD10B5EE
:10523000064C0FF27800DEE710B5044C0FF2800048
:10524000D9E700008001002094010020B420002054
:1052500098010020E8F7FF1F62B1030F0A2B34BF4B
:105260003033373301F8013B00010023521E01F8AF
:10527000013BF2D17047000053544D333220437547
:1052800073746F6D2048756D616E20696E74657200
:10529000666163650000000053544D6963726F6579
:1052A0006C656374726F6E69637300004375737429
:1052B0006F6D2048494420436F6E666967000000A7
:1052C000437573746F6D2048494420496E7465724C
:1052D00066616365000000007047FEE7FEE7FEE7D9
:1052E000FEE770471748FDF7FBBC1748FDF7F8BC11
:1052F00000E000BF1548FFF7BBB81548FBF7A8BE94
:1053000080B51448FBF7A4FE1348018809B1491E73
:1053100001801248017809B1491E017010480178D6
:1053200009B1491E01700F48017809B1491E017089
:105330000D48017809B1491E017001BD0B48FCF709
:10534000C1B90000AC26002068260020301A0020D9
:10535000F0260020D02400204E270020440000200A
:1053600053000020CC010020B50100209024002033
:105370000E480F4A016841F0010101604168114087
:1053800041600C4A016811400160016821F48021EC
:105390000160416821F4FE0141604FF41F0181600A
:1053A0004FF00060044908607047000000100240A0
:1053B0000000FFF8FFFFF6FE08ED00E0000000002F
:1053C00000000000010203040607080900207047DE
:1053D0000020704710B40E4A0E48D2F81822011D62
:1053E000042312F8014B01F8014B5B1E12F8014B2C
:1053F00001F8014B12F8014B01F8014B12F8014B77
:1054000001F8014BEDD101210170002010BC704763
:10541000901E00206427002019E050F8041BCB07E1
:1054200044BFA9F101035918121F0023042A41F8AF
:10543000043BF9D25FEA827C0B4604D54FF0000CA6
:10544000A1F800C09B1CD10744BF0021197050F87F
:10545000042B002AE1D1704710B50749794418316F
:10546000064C7C44163404E00A68081D511888472D
:105470000146A142F8D110BD080000002400000040
:1054800099FFFFFFDC210000D00500200000000094
:1054900083B6FFFF2001000046020000000000204C
:1054A0004E65745461736B005265616453656E732D
:1054B0006F727300447269766500000000F00BF8AB
:1054C000002801D0FFF7C8FF0020C046C046FCF707
:1054D000AFFD00F002F80120704700F001B80000B5
:1054E0000746384600F002F8FBE7000080B5C046EA
:1054F000C046024A11001820ABBEFBE7260002009E
:1055000001488047014800477153000811550008C1
:10551000C046C046C046C046FFF7D0FF00000000AE
:1055200001020304FFF7FEBFFFF7FEBFFFF7FEBF58
:10553000FFF7FEBFFFF7FEBFFFF7FEBFFFF7FEBF9F
:10554000FFF7FEBFFFF7FEBFFFF7FEBFFFF7FEBF8F
:10555000FFF7FEBFFFF7FEBFFFF7FEBFFFF7FEBF7F
:10556000FFF7FEBFFFF7FEBFFFF7FEBFFFF7FEBF6F
:10557000FFF7FEBFFFF7FEBFFFF7FEBFFFF7FEBF5F
:10558000FFF7FEBFFFF7FEBFFFF7FEBFFFF7FEBF4F
:10559000FFF7FEBFFFF7FEBFFFF7FEBFFFF7FEBF3F
:1055A000FFF7FEBFFFF7FEBFFFF7FEBFFFF7FEBF2F
:1055B000FFF7FEBF12000112AA01210843010001FA
:1055C000221008F00206A24A04000122032A130155
:1055D0000108A00400003200900128F00900010435
:1055E000080000C800C80A0A0A3FF301010252205D
:1055F000120600FF0901A10185010901150026FF1E
:1056000000750895100D800491028502090213119E
:105610000D1113800103090313110D80048102850C
:1056200004090413110D100A8102C080000020CD6E
:10563000530008D10412D5041003991A0008E3049A
:105640001001111B009D100500001F1C0008ED0C2F
:1056500052FB10610112E5106104433F1C1C200144
:10566000090229EB1401C032090F2202F2201109AC
:1056700021110100012254000705810302002007C7
:10568000050107A11A110120010A0600EE26401D9E
:105690001003D5510008DD0412EF0412E5041003D5
:1056A000035200082F041239044312012810078CFA
:1056B000045057000201020331F0050804030904F5
:1056C0001A0300016364641C1003080700005840BB
:0756D00013B00405120AA942
:040000050800551189
:00000001FF
